{
  "_format": "hh-sol-artifact-1",
  "contractName": "TokenFactory",
  "sourceName": "contracts/tokenFactory.sol",
  "abi": [
    {
      "anonymous": false,
      "inputs": [
        {
          "indexed": true,
          "internalType": "address",
          "name": "tokenAddress",
          "type": "address"
        },
        {
          "indexed": false,
          "internalType": "string",
          "name": "name",
          "type": "string"
        },
        {
          "indexed": false,
          "internalType": "string",
          "name": "symbol",
          "type": "string"
        },
        {
          "indexed": false,
          "internalType": "uint256",
          "name": "initialSupply",
          "type": "uint256"
        },
        {
          "indexed": false,
          "internalType": "address",
          "name": "owner",
          "type": "address"
        }
      ],
      "name": "TokenCreated",
      "type": "event"
    },
    {
      "inputs": [
        {
          "internalType": "string",
          "name": "name",
          "type": "string"
        },
        {
          "internalType": "string",
          "name": "symbol",
          "type": "string"
        },
        {
          "internalType": "uint256",
          "name": "initialSupply",
          "type": "uint256"
        }
      ],
      "name": "createToken",
      "outputs": [],
      "stateMutability": "nonpayable",
      "type": "function"
    }
  ],
  "bytecode": "0x608060405234801561001057600080fd5b50611daf806100206000396000f3fe60806040523480156200001157600080fd5b50600436106200002e5760003560e01c80635b0605301462000033575b600080fd5b6200005160048036038101906200004b919062000313565b62000053565b005b6000604051620000639062000154565b604051809103906000f08015801562000080573d6000803e3d6000fd5b5090508073ffffffffffffffffffffffffffffffffffffffff1663bd3a13f6858585336040518563ffffffff1660e01b8152600401620000c494939291906200048c565b600060405180830381600087803b158015620000df57600080fd5b505af1158015620000f4573d6000803e3d6000fd5b505050508073ffffffffffffffffffffffffffffffffffffffff167fb7d8fd3c9d56d12c15c8e139bc4e6febd6ad2349b3ebe6a1a91c0a9e7797710d858585336040516200014694939291906200048c565b60405180910390a250505050565b61189280620004e883390190565b6000604051905090565b600080fd5b600080fd5b600080fd5b600080fd5b6000601f19601f8301169050919050565b7f4e487b7100000000000000000000000000000000000000000000000000000000600052604160045260246000fd5b620001cb8262000180565b810181811067ffffffffffffffff82111715620001ed57620001ec62000191565b5b80604052505050565b60006200020262000162565b9050620002108282620001c0565b919050565b600067ffffffffffffffff82111562000233576200023262000191565b5b6200023e8262000180565b9050602081019050919050565b82818337600083830152505050565b6000620002716200026b8462000215565b620001f6565b90508281526020810184848401111562000290576200028f6200017b565b5b6200029d8482856200024b565b509392505050565b600082601f830112620002bd57620002bc62000176565b5b8135620002cf8482602086016200025a565b91505092915050565b6000819050919050565b620002ed81620002d8565b8114620002f957600080fd5b50565b6000813590506200030d81620002e2565b92915050565b6000806000606084860312156200032f576200032e6200016c565b5b600084013567ffffffffffffffff81111562000350576200034f62000171565b5b6200035e86828701620002a5565b935050602084013567ffffffffffffffff81111562000382576200038162000171565b5b6200039086828701620002a5565b9250506040620003a386828701620002fc565b9150509250925092565b600081519050919050565b600082825260208201905092915050565b60005b83811015620003e9578082015181840152602081019050620003cc565b60008484015250505050565b60006200040282620003ad565b6200040e8185620003b8565b935062000420818560208601620003c9565b6200042b8162000180565b840191505092915050565b6200044181620002d8565b82525050565b600073ffffffffffffffffffffffffffffffffffffffff82169050919050565b6000620004748262000447565b9050919050565b620004868162000467565b82525050565b60006080820190508181036000830152620004a88187620003f5565b90508181036020830152620004be8186620003f5565b9050620004cf604083018562000436565b620004de60608301846200047b565b9594505050505056fe60806040526040518060400160405280601381526020017f47726170684f7074696d697a6564546f6b656e00000000000000000000000000815250600090816200004a91906200033c565b506040518060400160405280600381526020017f474f540000000000000000000000000000000000000000000000000000000000815250600190816200009191906200033c565b506012600260006101000a81548160ff021916908360ff160217905550348015620000bb57600080fd5b5062000423565b600081519050919050565b7f4e487b7100000000000000000000000000000000000000000000000000000000600052604160045260246000fd5b7f4e487b7100000000000000000000000000000000000000000000000000000000600052602260045260246000fd5b600060028204905060018216806200014457607f821691505b6020821081036200015a5762000159620000fc565b5b50919050565b60008190508160005260206000209050919050565b60006020601f8301049050919050565b600082821b905092915050565b600060088302620001c47fffffffffffffffffffffffffffffffffffffffffffffffffffffffffffffffff8262000185565b620001d0868362000185565b95508019841693508086168417925050509392505050565b6000819050919050565b6000819050919050565b60006200021d620002176200021184620001e8565b620001f2565b620001e8565b9050919050565b6000819050919050565b6200023983620001fc565b62000251620002488262000224565b84845462000192565b825550505050565b600090565b6200026862000259565b620002758184846200022e565b505050565b5b818110156200029d57620002916000826200025e565b6001810190506200027b565b5050565b601f821115620002ec57620002b68162000160565b620002c18462000175565b81016020851015620002d1578190505b620002e9620002e08562000175565b8301826200027a565b50505b505050565b600082821c905092915050565b60006200031160001984600802620002f1565b1980831691505092915050565b60006200032c8383620002fe565b9150826002028217905092915050565b6200034782620000c2565b67ffffffffffffffff811115620003635762000362620000cd565b5b6200036f82546200012b565b6200037c828285620002a1565b600060209050601f831160018114620003b457600084156200039f578287015190505b620003ab85826200031e565b8655506200041b565b601f198416620003c48662000160565b60005b82811015620003ee57848901518255600182019150602085019450602081019050620003c7565b868310156200040e57848901516200040a601f891682620002fe565b8355505b6001600288020188555050505b505050505050565b61145f80620004336000396000f3fe608060405234801561001057600080fd5b506004361061009e5760003560e01c806370a082311161006657806370a082311461015d57806395d89b411461018d578063a9059cbb146101ab578063bd3a13f6146101db578063dd62ed3e146101f75761009e565b806306fdde03146100a3578063095ea7b3146100c157806318160ddd146100f157806323b872dd1461010f578063313ce5671461013f575b600080fd5b6100ab610227565b6040516100b89190610a53565b60405180910390f35b6100db60048036038101906100d69190610b1d565b6102b5565b6040516100e89190610b78565b60405180910390f35b6100f96103a7565b6040516101069190610ba2565b60405180910390f35b61012960048036038101906101249190610bbd565b6103ad565b6040516101369190610b78565b60405180910390f35b610147610633565b6040516101549190610c2c565b60405180910390f35b61017760048036038101906101729190610c47565b610646565b6040516101849190610ba2565b60405180910390f35b61019561065e565b6040516101a29190610a53565b60405180910390f35b6101c560048036038101906101c09190610b1d565b6106ec565b6040516101d29190610b78565b60405180910390f35b6101f560048036038101906101f09190610da9565b610855565b005b610211600480360381019061020c9190610e48565b61099e565b60405161021e9190610ba2565b60405180910390f35b6000805461023490610eb7565b80601f016020809104026020016040519081016040528092919081815260200182805461026090610eb7565b80156102ad5780601f10610282576101008083540402835291602001916102ad565b820191906000526020600020905b81548152906001019060200180831161029057829003601f168201915b505050505081565b600081600560003373ffffffffffffffffffffffffffffffffffffffff1673ffffffffffffffffffffffffffffffffffffffff16815260200190815260200160002060008573ffffffffffffffffffffffffffffffffffffffff1673ffffffffffffffffffffffffffffffffffffffff168152602001908152602001600020819055508273ffffffffffffffffffffffffffffffffffffffff163373ffffffffffffffffffffffffffffffffffffffff167f8c5be1e5ebec7d5bd14f71427d1e84f3dd0314c0f7b2291e5b200ac8c7c3b925846040516103959190610ba2565b60405180910390a36001905092915050565b60035481565b6000600460008573ffffffffffffffffffffffffffffffffffffffff1673ffffffffffffffffffffffffffffffffffffffff168152602001908152602001600020548211156103fb57600080fd5b600560008573ffffffffffffffffffffffffffffffffffffffff1673ffffffffffffffffffffffffffffffffffffffff16815260200190815260200160002060003373ffffffffffffffffffffffffffffffffffffffff1673ffffffffffffffffffffffffffffffffffffffff1681526020019081526020016000205482111561048457600080fd5b81600460008673ffffffffffffffffffffffffffffffffffffffff1673ffffffffffffffffffffffffffffffffffffffff16815260200190815260200160002060008282546104d39190610f17565b9250508190555081600460008573ffffffffffffffffffffffffffffffffffffffff1673ffffffffffffffffffffffffffffffffffffffff16815260200190815260200160002060008282546105299190610f4b565b9250508190555081600560008673ffffffffffffffffffffffffffffffffffffffff1673ffffffffffffffffffffffffffffffffffffffff16815260200190815260200160002060003373ffffffffffffffffffffffffffffffffffffffff1673ffffffffffffffffffffffffffffffffffffffff16815260200190815260200160002060008282546105bc9190610f17565b925050819055508273ffffffffffffffffffffffffffffffffffffffff168473ffffffffffffffffffffffffffffffffffffffff167fddf252ad1be2c89b69c2b068fc378daa952ba7f163c4a11628f55a4df523b3ef846040516106209190610ba2565b60405180910390a3600190509392505050565b600260009054906101000a900460ff1681565b60046020528060005260406000206000915090505481565b6001805461066b90610eb7565b80601f016020809104026020016040519081016040528092919081815260200182805461069790610eb7565b80156106e45780601f106106b9576101008083540402835291602001916106e4565b820191906000526020600020905b8154815290600101906020018083116106c757829003601f168201915b505050505081565b600081600460003373ffffffffffffffffffffffffffffffffffffffff1673ffffffffffffffffffffffffffffffffffffffff16815260200190815260200160002054101561073a57600080fd5b81600460003373ffffffffffffffffffffffffffffffffffffffff1673ffffffffffffffffffffffffffffffffffffffff16815260200190815260200160002060008282546107899190610f17565b9250508190555081600460008573ffffffffffffffffffffffffffffffffffffffff1673ffffffffffffffffffffffffffffffffffffffff16815260200190815260200160002060008282546107df9190610f4b565b925050819055508273ffffffffffffffffffffffffffffffffffffffff163373ffffffffffffffffffffffffffffffffffffffff167fddf252ad1be2c89b69c2b068fc378daa952ba7f163c4a11628f55a4df523b3ef846040516108439190610ba2565b60405180910390a36001905092915050565b60006003541461089a576040517f08c379a000000000000000000000000000000000000000000000000000000000815260040161089190610fcb565b60405180910390fd5b83600090816108a99190611197565b5082600190816108b99190611197565b50600260009054906101000a900460ff1660ff16600a6108d9919061139c565b826108e491906113e7565b600381905550600354600460008373ffffffffffffffffffffffffffffffffffffffff1673ffffffffffffffffffffffffffffffffffffffff168152602001908152602001600020819055508073ffffffffffffffffffffffffffffffffffffffff16600073ffffffffffffffffffffffffffffffffffffffff167fddf252ad1be2c89b69c2b068fc378daa952ba7f163c4a11628f55a4df523b3ef6003546040516109909190610ba2565b60405180910390a350505050565b6005602052816000526040600020602052806000526040600020600091509150505481565b600081519050919050565b600082825260208201905092915050565b60005b838110156109fd5780820151818401526020810190506109e2565b60008484015250505050565b6000601f19601f8301169050919050565b6000610a25826109c3565b610a2f81856109ce565b9350610a3f8185602086016109df565b610a4881610a09565b840191505092915050565b60006020820190508181036000830152610a6d8184610a1a565b905092915050565b6000604051905090565b600080fd5b600080fd5b600073ffffffffffffffffffffffffffffffffffffffff82169050919050565b6000610ab482610a89565b9050919050565b610ac481610aa9565b8114610acf57600080fd5b50565b600081359050610ae181610abb565b92915050565b6000819050919050565b610afa81610ae7565b8114610b0557600080fd5b50565b600081359050610b1781610af1565b92915050565b60008060408385031215610b3457610b33610a7f565b5b6000610b4285828601610ad2565b9250506020610b5385828601610b08565b9150509250929050565b60008115159050919050565b610b7281610b5d565b82525050565b6000602082019050610b8d6000830184610b69565b92915050565b610b9c81610ae7565b82525050565b6000602082019050610bb76000830184610b93565b92915050565b600080600060608486031215610bd657610bd5610a7f565b5b6000610be486828701610ad2565b9350506020610bf586828701610ad2565b9250506040610c0686828701610b08565b9150509250925092565b600060ff82169050919050565b610c2681610c10565b82525050565b6000602082019050610c416000830184610c1d565b92915050565b600060208284031215610c5d57610c5c610a7f565b5b6000610c6b84828501610ad2565b91505092915050565b600080fd5b600080fd5b7f4e487b7100000000000000000000000000000000000000000000000000000000600052604160045260246000fd5b610cb682610a09565b810181811067ffffffffffffffff82111715610cd557610cd4610c7e565b5b80604052505050565b6000610ce8610a75565b9050610cf48282610cad565b919050565b600067ffffffffffffffff821115610d1457610d13610c7e565b5b610d1d82610a09565b9050602081019050919050565b82818337600083830152505050565b6000610d4c610d4784610cf9565b610cde565b905082815260208101848484011115610d6857610d67610c79565b5b610d73848285610d2a565b509392505050565b600082601f830112610d9057610d8f610c74565b5b8135610da0848260208601610d39565b91505092915050565b60008060008060808587031215610dc357610dc2610a7f565b5b600085013567ffffffffffffffff811115610de157610de0610a84565b5b610ded87828801610d7b565b945050602085013567ffffffffffffffff811115610e0e57610e0d610a84565b5b610e1a87828801610d7b565b9350506040610e2b87828801610b08565b9250506060610e3c87828801610ad2565b91505092959194509250565b60008060408385031215610e5f57610e5e610a7f565b5b6000610e6d85828601610ad2565b9250506020610e7e85828601610ad2565b9150509250929050565b7f4e487b7100000000000000000000000000000000000000000000000000000000600052602260045260246000fd5b60006002820490506001821680610ecf57607f821691505b602082108103610ee257610ee1610e88565b5b50919050565b7f4e487b7100000000000000000000000000000000000000000000000000000000600052601160045260246000fd5b6000610f2282610ae7565b9150610f2d83610ae7565b9250828203905081811115610f4557610f44610ee8565b5b92915050565b6000610f5682610ae7565b9150610f6183610ae7565b9250828201905080821115610f7957610f78610ee8565b5b92915050565b7f546f6b656e20616c726561647920696e697469616c697a656400000000000000600082015250565b6000610fb56019836109ce565b9150610fc082610f7f565b602082019050919050565b60006020820190508181036000830152610fe481610fa8565b9050919050565b60008190508160005260206000209050919050565b60006020601f8301049050919050565b600082821b905092915050565b60006008830261104d7fffffffffffffffffffffffffffffffffffffffffffffffffffffffffffffffff82611010565b6110578683611010565b95508019841693508086168417925050509392505050565b6000819050919050565b600061109461108f61108a84610ae7565b61106f565b610ae7565b9050919050565b6000819050919050565b6110ae83611079565b6110c26110ba8261109b565b84845461101d565b825550505050565b600090565b6110d76110ca565b6110e28184846110a5565b505050565b5b81811015611106576110fb6000826110cf565b6001810190506110e8565b5050565b601f82111561114b5761111c81610feb565b61112584611000565b81016020851015611134578190505b61114861114085611000565b8301826110e7565b50505b505050565b600082821c905092915050565b600061116e60001984600802611150565b1980831691505092915050565b6000611187838361115d565b9150826002028217905092915050565b6111a0826109c3565b67ffffffffffffffff8111156111b9576111b8610c7e565b5b6111c38254610eb7565b6111ce82828561110a565b600060209050601f83116001811461120157600084156111ef578287015190505b6111f9858261117b565b865550611261565b601f19841661120f86610feb565b60005b8281101561123757848901518255600182019150602085019450602081019050611212565b868310156112545784890151611250601f89168261115d565b8355505b6001600288020188555050505b505050505050565b60008160011c9050919050565b6000808291508390505b60018511156112c05780860481111561129c5761129b610ee8565b5b60018516156112ab5780820291505b80810290506112b985611269565b9450611280565b94509492505050565b6000826112d95760019050611395565b816112e75760009050611395565b81600181146112fd576002811461130757611336565b6001915050611395565b60ff84111561131957611318610ee8565b5b8360020a9150848211156113305761132f610ee8565b5b50611395565b5060208310610133831016604e8410600b841016171561136b5782820a90508381111561136657611365610ee8565b5b611395565b6113788484846001611276565b9250905081840481111561138f5761138e610ee8565b5b81810290505b9392505050565b60006113a782610ae7565b91506113b283610ae7565b92506113df7fffffffffffffffffffffffffffffffffffffffffffffffffffffffffffffffff84846112c9565b905092915050565b60006113f282610ae7565b91506113fd83610ae7565b925082820261140b81610ae7565b9150828204841483151761142257611421610ee8565b5b509291505056fea2646970667358221220552a5a01aff3002c86a919a176c856284f9ab589e5a9fb28fe8b841e751e876464736f6c63430008130033a2646970667358221220f8f675fe14bf4a6acacef34b4845365c47a518f5e1e2d0609c216a1bb39b340264736f6c63430008130033",
  "linkReferences": {},
  "deployedLinkReferences": {}
}